:100000000C9438000C9455000C9455000C94550039
:100010000C9455000C9455000C9455000C9455000C
:100020000C9455000C9455000C9455000C945500FC
:100030000C9455000C9455000C9455000C945500EC
:100040000C9455000C9455000C9455000C949D0094
:100050000C9455000C9455000C9455000C945500CC
:100060000C9457000C9455000C9455000C945500BA
:1000700011241FBECFEFD0E1DEBFCDBF11E0A0E065
:10008000B1E0ECEEF5E002C005900D92AC30B107A6
:10009000D9F721E0ACE0B1E001C01D92A332B20774
:1000A000E1F70E94A0020C94F4020C9400001F924D
:1000B0000F920FB60F9211242F938F939F93AF93AC
:1000C000BF93EF93FF9380910C018823D9F0809127
:1000D000780020917900ACE7B0E0EC91F0E0EE0F11
:1000E000FF1FE95EFE4F90E0922B918380838C91FD
:1000F000873020F480917C008F5F01C081E0809385
:100100007C0004C08091780080917900EAE7F0E0FB
:1001100080818065808390910C0181E089278093A4
:100120000C01FF91EF91BF91AF919F918F912F9112
:100130000F900FBE0F901F9018951F920F920FB641
:100140000F9211242F933F934F935F936F937F935D
:100150008F939F93AF93BF93EF93FF9380910D0184
:10016000811105C09EB5EDE0F1E092831182E0912E
:100170000F01EB30E0F5EEB5EF70F0E0E050FF4F2F
:100180008081982F907F903A79F441B18F7021E06F
:1001900030E0B90102C0660F771F8A95E2F7CB0104
:1001A0008095842381B921C0903C79F447B18F7048
:1001B00021E030E0B90102C0660F771F8A95E2F7AF
:1001C000CB018095842387B910C0903D71F44AB16A
:1001D0008F7021E030E0B90102C0660F771F8A9569
:1001E000E2F7CB01809584238AB91EBC8AC190EFC7
:1001F0009E0F9B30C8F5EEB5EF70F0E0E050FF4F7A
:100200008081982F907F903A71F441B18F7021E0F6
:1002100030E0B90102C0660F771F8A95E2F7CB0183
:10022000842B81B91FC0903C71F447B18F7021E0DD
:1002300030E0B90102C0660F771F8A95E2F7CB0163
:10024000842B87B90FC0903D69F44AB18F7021E0CB
:1002500030E0B90102C0660F771F8A95E2F7CB0143
:10026000842B8AB91EBC4DC190EE9E0F9B30E0F5E9
:10027000EEB5EF70F0E0E050FF4F8081982F907F57
:10028000903A79F442B18F7021E030E0B90102C0B8
:10029000660F771F8A95E2F7CB018095842382B998
:1002A00021C0903C79F448B18F7021E030E0B90171
:1002B00002C0660F771F8A95E2F7CB0180958423F1
:1002C00088B910C0903D71F44BB18F7021E030E0DF
:1002D000B90102C0660F771F8A95E2F7CB018095BE
:1002E00084238BB91EBC0DC190ED9E0F9B30C8F5C9
:1002F000EEB5EF70F0E0E050FF4F8081982F907FD7
:10030000903A71F442B18F7021E030E0B90102C03F
:10031000660F771F8A95E2F7CB01842B82B91FC045
:10032000903C71F448B18F7021E030E0B90102C017
:10033000660F771F8A95E2F7CB01842B88B90FC02F
:10034000903D69F44BB18F7021E030E0B90102C0FB
:10035000660F771F8A95E2F7CB01842B8BB91EBC01
:10036000D0C090EC9E0F9B30F0F591E090930E0181
:10037000811137C0EEB5EF70F0E0E050FF4F8081A3
:10038000982F907F903A69F420B130E08F70A901E6
:1003900002C0559547958A95E2F7CA0181708EBDD6
:1003A000B0C0903C69F426B130E08F70B90102C052
:1003B000759567958A95E2F7CB0181708EBDA1C0D6
:1003C000903D69F429B130E08F70A90102C05595C4
:1003D00047958A95E2F7CA0181708EBD92C01EBC16
:1003E00090C01EBC8EC090EB9E0F9730D8F492E068
:1003F00090930E01811109C0EF70F0E0EE0FFF1F26
:10040000EB5EFE4F81818EBD7CC0813049F4EF7080
:10041000F0E0EE0FFF1FEB5EFE4F80818EBD71C0DE
:100420001EBC6FC090EA9E0F9430D0F4EF708E2FF8
:1004300090E0E0E1F1E0DC01A05FBE4F1C92880F8C
:10044000991F23E030E0B90102C0660F771F8A953B
:10045000E2F7CB0180959481892384831EBC51C02F
:100460009CE99E0F983060F591E090930E018130E9
:1004700029F58E2F837090E02EB5DC01A05FBE4F72
:100480002C93880F991F23E030E0082E02C0220F22
:10049000331F0A94E2F72095409114014223E93674
:1004A00018F422E030E002C021E030E002C0220F68
:1004B000331F8A95E2F7242B209314011EBC21C020
:1004C000EE3669F495E090930E01882331F09EB5E5
:1004D000E82FF0E0E15FFE4F90831EBC12C0EF36C4
:1004E00049F4E0E1F1E01082118212821382148259
:1004F0001EBC07C0EF3F29F481E080930E018CEA17
:100500008EBDEDE0F1E080819181891710F48F5F5D
:1005100001C080E080930D01911101C01EBCFF91CC
:10052000EF91BF91AF919F918F917F916F915F916B
:100530004F913F912F910F900FBE0F901F901895E4
:1005400011B88FE484B980EF87B98AB981EA8093C2
:1005500080008AE08093810083EA8093B00082E08B
:100560008093B10010927C008FEC80937A0080EC35
:100570008CBD1EBC7894E0E1F1E043EB50E024EB4D
:1005800030E0C8E8D0E00F2EFAE8EF2EF12CF02D85
:1005900015B1848190E0BC01759567957595679557
:1005A0007595679575956795712F707F672B65B900
:1005B00068B182959295907F9827807F9827962F93
:1005C0009F70892B88B98081DA018C938181D90150
:1005D0008C93828190E099838883838190E0D70116
:0C05E00011969C938E93D4CFF894FFCF1B
:0C05EC00D0D2D1C3C2C1D3C0A1A2A300D1
:00000001FF
